{"abi":[{"type":"function","name":"getAllEntries","inputs":[{"name":"user","type":"address","internalType":"address"}],"outputs":[{"name":"","type":"tuple[]","internalType":"struct JournalGO.Entry[]","components":[{"name":"cipher","type":"string","internalType":"string"},{"name":"iv","type":"string","internalType":"string"},{"name":"timestamp","type":"uint256","internalType":"uint256"}]}],"stateMutability":"view"},{"type":"function","name":"getEntry","inputs":[{"name":"user","type":"address","internalType":"address"},{"name":"index","type":"uint256","internalType":"uint256"}],"outputs":[{"name":"","type":"string","internalType":"string"},{"name":"","type":"string","internalType":"string"},{"name":"","type":"uint256","internalType":"uint256"}],"stateMutability":"view"},{"type":"function","name":"getEntryCount","inputs":[{"name":"user","type":"address","internalType":"address"}],"outputs":[{"name":"","type":"uint256","internalType":"uint256"}],"stateMutability":"view"},{"type":"function","name":"recordEntry","inputs":[{"name":"cipher","type":"string","internalType":"string"},{"name":"iv","type":"string","internalType":"string"}],"outputs":[],"stateMutability":"nonpayable"},{"type":"event","name":"EntryRecorded","inputs":[{"name":"user","type":"address","indexed":true,"internalType":"address"},{"name":"cipher","type":"string","indexed":false,"internalType":"string"},{"name":"iv","type":"string","indexed":false,"internalType":"string"},{"name":"timestamp","type":"uint256","indexed":false,"internalType":"uint256"}],"anonymous":false}],"bytecode":{"object":"0x6080604052348015600e575f80fd5b50610e638061001c5f395ff3fe608060405234801561000f575f80fd5b506004361061004a575f3560e01c80635b6f1dc81461004e578063b8a740e01461006a578063c5c9bd251461009c578063cb207ab2146100cc575b5f80fd5b610068600480360381019061006391906106b4565b6100fc565b005b610084600480360381019061007f91906107bf565b610291565b6040516100939392919061087c565b60405180910390f35b6100b660048036038101906100b191906108bf565b610442565b6040516100c391906108ea565b60405180910390f35b6100e660048036038101906100e191906108bf565b61048a565b6040516100f39190610a69565b60405180910390f35b5f803373ffffffffffffffffffffffffffffffffffffffff1673ffffffffffffffffffffffffffffffffffffffff1681526020019081526020015f20604051806060016040528086868080601f0160208091040260200160405190810160405280939291908181526020018383808284375f81840152601f19601f82011690508083019250505050505050815260200184848080601f0160208091040260200160405190810160405280939291908181526020018383808284375f81840152601f19601f82011690508083019250505050505050815260200142815250908060018154018082558091505060019003905f5260205f2090600302015f909190919091505f820151815f0190816102129190610cb0565b5060208201518160010190816102289190610cb0565b506040820151816002015550503373ffffffffffffffffffffffffffffffffffffffff167fc18ac59f923e66bc0288251c239a3bc565e11844e07b6ac9cf63e3b2cfd66ebd8585858542604051610283959493929190610db9565b60405180910390a250505050565b6060805f805f808773ffffffffffffffffffffffffffffffffffffffff1673ffffffffffffffffffffffffffffffffffffffff1681526020019081526020015f2085815481106102e4576102e3610e00565b5b905f5260205f2090600302016040518060600160405290815f8201805461030a90610ae3565b80601f016020809104026020016040519081016040528092919081815260200182805461033690610ae3565b80156103815780601f1061035857610100808354040283529160200191610381565b820191905f5260205f20905b81548152906001019060200180831161036457829003601f168201915b5050505050815260200160018201805461039a90610ae3565b80601f01602080910402602001604051908101604052809291908181526020018280546103c690610ae3565b80156104115780601f106103e857610100808354040283529160200191610411565b820191905f5260205f20905b8154815290600101906020018083116103f457829003601f168201915b505050505081526020016002820154815250509050805f015181602001518260400151935093509350509250925092565b5f805f8373ffffffffffffffffffffffffffffffffffffffff1673ffffffffffffffffffffffffffffffffffffffff1681526020019081526020015f20805490509050919050565b60605f808373ffffffffffffffffffffffffffffffffffffffff1673ffffffffffffffffffffffffffffffffffffffff1681526020019081526020015f20805480602002602001604051908101604052809291908181526020015f905b82821015610640578382905f5260205f2090600302016040518060600160405290815f8201805461051790610ae3565b80601f016020809104026020016040519081016040528092919081815260200182805461054390610ae3565b801561058e5780601f106105655761010080835404028352916020019161058e565b820191905f5260205f20905b81548152906001019060200180831161057157829003601f168201915b505050505081526020016001820180546105a790610ae3565b80601f01602080910402602001604051908101604052809291908181526020018280546105d390610ae3565b801561061e5780601f106105f55761010080835404028352916020019161061e565b820191905f5260205f20905b81548152906001019060200180831161060157829003601f168201915b50505050508152602001600282015481525050815260200190600101906104e7565b505050509050919050565b5f80fd5b5f80fd5b5f80fd5b5f80fd5b5f80fd5b5f8083601f84011261067457610673610653565b5b8235905067ffffffffffffffff81111561069157610690610657565b5b6020830191508360018202830111156106ad576106ac61065b565b5b9250929050565b5f805f80604085870312156106cc576106cb61064b565b5b5f85013567ffffffffffffffff8111156106e9576106e861064f565b5b6106f58782880161065f565b9450945050602085013567ffffffffffffffff8111156107185761071761064f565b5b6107248782880161065f565b925092505092959194509250565b5f73ffffffffffffffffffffffffffffffffffffffff82169050919050565b5f61075b82610732565b9050919050565b61076b81610751565b8114610775575f80fd5b50565b5f8135905061078681610762565b92915050565b5f819050919050565b61079e8161078c565b81146107a8575f80fd5b50565b5f813590506107b981610795565b92915050565b5f80604083850312156107d5576107d461064b565b5b5f6107e285828601610778565b92505060206107f3858286016107ab565b9150509250929050565b5f81519050919050565b5f82825260208201905092915050565b8281835e5f83830152505050565b5f601f19601f8301169050919050565b5f61083f826107fd565b6108498185610807565b9350610859818560208601610817565b61086281610825565b840191505092915050565b6108768161078c565b82525050565b5f6060820190508181035f8301526108948186610835565b905081810360208301526108a88185610835565b90506108b7604083018461086d565b949350505050565b5f602082840312156108d4576108d361064b565b5b5f6108e184828501610778565b91505092915050565b5f6020820190506108fd5f83018461086d565b92915050565b5f81519050919050565b5f82825260208201905092915050565b5f819050602082019050919050565b5f82825260208201905092915050565b5f610946826107fd565b610950818561092c565b9350610960818560208601610817565b61096981610825565b840191505092915050565b61097d8161078c565b82525050565b5f606083015f8301518482035f86015261099d828261093c565b915050602083015184820360208601526109b7828261093c565b91505060408301516109cc6040860182610974565b508091505092915050565b5f6109e28383610983565b905092915050565b5f602082019050919050565b5f610a0082610903565b610a0a818561090d565b935083602082028501610a1c8561091d565b805f5b85811015610a575784840389528151610a3885826109d7565b9450610a43836109ea565b925060208a01995050600181019050610a1f565b50829750879550505050505092915050565b5f6020820190508181035f830152610a8181846109f6565b905092915050565b7f4e487b71000000000000000000000000000000000000000000000000000000005f52604160045260245ffd5b7f4e487b71000000000000000000000000000000000000000000000000000000005f52602260045260245ffd5b5f6002820490506001821680610afa57607f821691505b602082108103610b0d57610b0c610ab6565b5b50919050565b5f819050815f5260205f209050919050565b5f6020601f8301049050919050565b5f82821b905092915050565b5f60088302610b6f7fffffffffffffffffffffffffffffffffffffffffffffffffffffffffffffffff82610b34565b610b798683610b34565b95508019841693508086168417925050509392505050565b5f819050919050565b5f610bb4610baf610baa8461078c565b610b91565b61078c565b9050919050565b5f819050919050565b610bcd83610b9a565b610be1610bd982610bbb565b848454610b40565b825550505050565b5f90565b610bf5610be9565b610c00818484610bc4565b505050565b5b81811015610c2357610c185f82610bed565b600181019050610c06565b5050565b601f821115610c6857610c3981610b13565b610c4284610b25565b81016020851015610c51578190505b610c65610c5d85610b25565b830182610c05565b50505b505050565b5f82821c905092915050565b5f610c885f1984600802610c6d565b1980831691505092915050565b5f610ca08383610c79565b9150826002028217905092915050565b610cb9826107fd565b67ffffffffffffffff811115610cd257610cd1610a89565b5b610cdc8254610ae3565b610ce7828285610c27565b5f60209050601f831160018114610d18575f8415610d06578287015190505b610d108582610c95565b865550610d77565b601f198416610d2686610b13565b5f5b82811015610d4d57848901518255600182019150602085019450602081019050610d28565b86831015610d6a5784890151610d66601f891682610c79565b8355505b6001600288020188555050505b505050505050565b828183375f83830152505050565b5f610d988385610807565b9350610da5838584610d7f565b610dae83610825565b840190509392505050565b5f6060820190508181035f830152610dd2818789610d8d565b90508181036020830152610de7818587610d8d565b9050610df6604083018461086d565b9695505050505050565b7f4e487b71000000000000000000000000000000000000000000000000000000005f52603260045260245ffdfea2646970667358221220ddef2a90539af60552efdfe7b7d1f808bdb27236d661520e43d313ea98ea0fa864736f6c63430008190033","linkReferences":{}},"methodIdentifiers":{"getAllEntries(address)":"cb207ab2","getEntry(address,uint256)":"b8a740e0","getEntryCount(address)":"c5c9bd25","recordEntry(string,string)":"5b6f1dc8"},"id":15}