{"abi":[{"type":"function","name":"getAllEntries","inputs":[{"name":"user","type":"address","internalType":"address"}],"outputs":[{"name":"","type":"tuple[]","internalType":"struct JournalGO.Entry[]","components":[{"name":"cipher","type":"string","internalType":"string"},{"name":"iv","type":"string","internalType":"string"},{"name":"timestamp","type":"uint256","internalType":"uint256"}]}],"stateMutability":"view"},{"type":"function","name":"getEntry","inputs":[{"name":"user","type":"address","internalType":"address"},{"name":"index","type":"uint256","internalType":"uint256"}],"outputs":[{"name":"","type":"string","internalType":"string"},{"name":"","type":"string","internalType":"string"},{"name":"","type":"uint256","internalType":"uint256"}],"stateMutability":"view"},{"type":"function","name":"getEntryCount","inputs":[{"name":"user","type":"address","internalType":"address"}],"outputs":[{"name":"","type":"uint256","internalType":"uint256"}],"stateMutability":"view"},{"type":"function","name":"recordEntry","inputs":[{"name":"cipher","type":"string","internalType":"string"},{"name":"iv","type":"string","internalType":"string"},{"name":"timestamp","type":"uint256","internalType":"uint256"}],"outputs":[],"stateMutability":"nonpayable"},{"type":"event","name":"EntryRecorded","inputs":[{"name":"user","type":"address","indexed":true,"internalType":"address"},{"name":"cipher","type":"string","indexed":false,"internalType":"string"},{"name":"iv","type":"string","indexed":false,"internalType":"string"},{"name":"timestamp","type":"uint256","indexed":false,"internalType":"uint256"}],"anonymous":false}],"bytecode":{"object":"0x6080604052348015600e575f80fd5b50610f228061001c5f395ff3fe608060405234801561000f575f80fd5b506004361061004a575f3560e01c8063b8a740e01461004e578063c5c9bd2514610080578063cb207ab2146100b0578063dfb5177b146100e0575b5f80fd5b61006860048036038101906100639190610724565b6100fc565b604051610077939291906107e1565b60405180910390f35b61009a60048036038101906100959190610824565b6102ad565b6040516100a7919061084f565b60405180910390f35b6100ca60048036038101906100c59190610824565b6102f5565b6040516100d791906109ce565b60405180910390f35b6100fa60048036038101906100f59190610a4f565b6104b6565b005b6060805f805f808773ffffffffffffffffffffffffffffffffffffffff1673ffffffffffffffffffffffffffffffffffffffff1681526020019081526020015f20858154811061014f5761014e610ae0565b5b905f5260205f2090600302016040518060600160405290815f8201805461017590610b3a565b80601f01602080910402602001604051908101604052809291908181526020018280546101a190610b3a565b80156101ec5780601f106101c3576101008083540402835291602001916101ec565b820191905f5260205f20905b8154815290600101906020018083116101cf57829003601f168201915b5050505050815260200160018201805461020590610b3a565b80601f016020809104026020016040519081016040528092919081815260200182805461023190610b3a565b801561027c5780601f106102535761010080835404028352916020019161027c565b820191905f5260205f20905b81548152906001019060200180831161025f57829003601f168201915b505050505081526020016002820154815250509050805f015181602001518260400151935093509350509250925092565b5f805f8373ffffffffffffffffffffffffffffffffffffffff1673ffffffffffffffffffffffffffffffffffffffff1681526020019081526020015f20805490509050919050565b60605f808373ffffffffffffffffffffffffffffffffffffffff1673ffffffffffffffffffffffffffffffffffffffff1681526020019081526020015f20805480602002602001604051908101604052809291908181526020015f905b828210156104ab578382905f5260205f2090600302016040518060600160405290815f8201805461038290610b3a565b80601f01602080910402602001604051908101604052809291908181526020018280546103ae90610b3a565b80156103f95780601f106103d0576101008083540402835291602001916103f9565b820191905f5260205f20905b8154815290600101906020018083116103dc57829003601f168201915b5050505050815260200160018201805461041290610b3a565b80601f016020809104026020016040519081016040528092919081815260200182805461043e90610b3a565b80156104895780601f1061046057610100808354040283529160200191610489565b820191905f5260205f20905b81548152906001019060200180831161046c57829003601f168201915b5050505050815260200160028201548152505081526020019060010190610352565b505050509050919050565b428111156104f9576040517f08c379a00000000000000000000000000000000000000000000000000000000081526004016104f090610bb4565b60405180910390fd5b5f803373ffffffffffffffffffffffffffffffffffffffff1673ffffffffffffffffffffffffffffffffffffffff1681526020019081526020015f20604051806060016040528087878080601f0160208091040260200160405190810160405280939291908181526020018383808284375f81840152601f19601f82011690508083019250505050505050815260200185858080601f0160208091040260200160405190810160405280939291908181526020018383808284375f81840152601f19601f82011690508083019250505050505050815260200183815250908060018154018082558091505060019003905f5260205f2090600302015f909190919091505f820151815f01908161060f9190610d9c565b5060208201518160010190816106259190610d9c565b506040820151816002015550503373ffffffffffffffffffffffffffffffffffffffff167fc18ac59f923e66bc0288251c239a3bc565e11844e07b6ac9cf63e3b2cfd66ebd8686868686604051610680959493929190610ea5565b60405180910390a25050505050565b5f80fd5b5f80fd5b5f73ffffffffffffffffffffffffffffffffffffffff82169050919050565b5f6106c082610697565b9050919050565b6106d0816106b6565b81146106da575f80fd5b50565b5f813590506106eb816106c7565b92915050565b5f819050919050565b610703816106f1565b811461070d575f80fd5b50565b5f8135905061071e816106fa565b92915050565b5f806040838503121561073a5761073961068f565b5b5f610747858286016106dd565b925050602061075885828601610710565b9150509250929050565b5f81519050919050565b5f82825260208201905092915050565b8281835e5f83830152505050565b5f601f19601f8301169050919050565b5f6107a482610762565b6107ae818561076c565b93506107be81856020860161077c565b6107c78161078a565b840191505092915050565b6107db816106f1565b82525050565b5f6060820190508181035f8301526107f9818661079a565b9050818103602083015261080d818561079a565b905061081c60408301846107d2565b949350505050565b5f602082840312156108395761083861068f565b5b5f610846848285016106dd565b91505092915050565b5f6020820190506108625f8301846107d2565b92915050565b5f81519050919050565b5f82825260208201905092915050565b5f819050602082019050919050565b5f82825260208201905092915050565b5f6108ab82610762565b6108b58185610891565b93506108c581856020860161077c565b6108ce8161078a565b840191505092915050565b6108e2816106f1565b82525050565b5f606083015f8301518482035f86015261090282826108a1565b9150506020830151848203602086015261091c82826108a1565b915050604083015161093160408601826108d9565b508091505092915050565b5f61094783836108e8565b905092915050565b5f602082019050919050565b5f61096582610868565b61096f8185610872565b93508360208202850161098185610882565b805f5b858110156109bc578484038952815161099d858261093c565b94506109a88361094f565b925060208a01995050600181019050610984565b50829750879550505050505092915050565b5f6020820190508181035f8301526109e6818461095b565b905092915050565b5f80fd5b5f80fd5b5f80fd5b5f8083601f840112610a0f57610a0e6109ee565b5b8235905067ffffffffffffffff811115610a2c57610a2b6109f2565b5b602083019150836001820283011115610a4857610a476109f6565b5b9250929050565b5f805f805f60608688031215610a6857610a6761068f565b5b5f86013567ffffffffffffffff811115610a8557610a84610693565b5b610a91888289016109fa565b9550955050602086013567ffffffffffffffff811115610ab457610ab3610693565b5b610ac0888289016109fa565b93509350506040610ad388828901610710565b9150509295509295909350565b7f4e487b71000000000000000000000000000000000000000000000000000000005f52603260045260245ffd5b7f4e487b71000000000000000000000000000000000000000000000000000000005f52602260045260245ffd5b5f6002820490506001821680610b5157607f821691505b602082108103610b6457610b63610b0d565b5b50919050565b7f496e76616c69642074696d657374616d700000000000000000000000000000005f82015250565b5f610b9e60118361076c565b9150610ba982610b6a565b602082019050919050565b5f6020820190508181035f830152610bcb81610b92565b9050919050565b7f4e487b71000000000000000000000000000000000000000000000000000000005f52604160045260245ffd5b5f819050815f5260205f209050919050565b5f6020601f8301049050919050565b5f82821b905092915050565b5f60088302610c5b7fffffffffffffffffffffffffffffffffffffffffffffffffffffffffffffffff82610c20565b610c658683610c20565b95508019841693508086168417925050509392505050565b5f819050919050565b5f610ca0610c9b610c96846106f1565b610c7d565b6106f1565b9050919050565b5f819050919050565b610cb983610c86565b610ccd610cc582610ca7565b848454610c2c565b825550505050565b5f90565b610ce1610cd5565b610cec818484610cb0565b505050565b5b81811015610d0f57610d045f82610cd9565b600181019050610cf2565b5050565b601f821115610d5457610d2581610bff565b610d2e84610c11565b81016020851015610d3d578190505b610d51610d4985610c11565b830182610cf1565b50505b505050565b5f82821c905092915050565b5f610d745f1984600802610d59565b1980831691505092915050565b5f610d8c8383610d65565b9150826002028217905092915050565b610da582610762565b67ffffffffffffffff811115610dbe57610dbd610bd2565b5b610dc88254610b3a565b610dd3828285610d13565b5f60209050601f831160018114610e04575f8415610df2578287015190505b610dfc8582610d81565b865550610e63565b601f198416610e1286610bff565b5f5b82811015610e3957848901518255600182019150602085019450602081019050610e14565b86831015610e565784890151610e52601f891682610d65565b8355505b6001600288020188555050505b505050505050565b828183375f83830152505050565b5f610e84838561076c565b9350610e91838584610e6b565b610e9a8361078a565b840190509392505050565b5f6060820190508181035f830152610ebe818789610e79565b90508181036020830152610ed3818587610e79565b9050610ee260408301846107d2565b969550505050505056fea2646970667358221220fb48108afc8772735326eb1920cc0d041d4e571d1594dcf49fbf65817e16a47864736f6c63430008190033","linkReferences":{}},"methodIdentifiers":{"getAllEntries(address)":"cb207ab2","getEntry(address,uint256)":"b8a740e0","getEntryCount(address)":"c5c9bd25","recordEntry(string,string,uint256)":"dfb5177b"},"id":15}